:020000040800F2
:10000000D81300208901000807280008E922000809
:1000100005280008DD0900087F2C0008000000000A
:10002000000000000000000000000000772A000827
:10003000170A000800000000752A0008792A000845
:10004000A3010008A3010008A3010008A301000800
:10005000A3010008A3010008A3010008190A000871
:10006000A3010008A3010008A3010008E10900089A
:10007000A3010008A3010008A3010008A3010008D0
:10008000A3010008A30100088D080008A3010008CF
:10009000A3010008A3010008A3010008A3010008B0
:1000A000A3010008A3010008A3010008A3010008A0
:1000B000A3010008F92A0008052B0008A301000885
:1000C000A3010008A3010008A3010008A301000880
:1000D000A3010008A3010008A3010008A301000870
:1000E000A3010008A3010008A301000800F002F822
:1000F00000F03AF80AA090E8000C82448344AAF188
:100100000107DA4501D100F02FF8AFF2090EBAE885
:100110000F0013F0010F18BFFB1A43F0010318473B
:10012000CC330000EC330000103A24BF78C878C10B
:10013000FAD8520724BF30C830C144BF04680C60ED
:10014000704700000023002400250026103A28BF35
:1001500078C1FBD8520728BF30C148BF0B60704739
:100160001FB51FBD10B510BD00F05AFB1146FFF7BB
:10017000F7FF02F095FD00F078FB03B4FFF7F2FF04
:1001800003BC00F07BFB000009488047094800479A
:10019000FEE7FEE7FEE7FEE7FEE7FEE7FEE7FEE737
:1001A000FEE7FEE704480549054A064B7047000094
:1001B000F52A0008ED000008D80D0020D813002013
:1001C000D80F0020D80F00202DE9F04F4FF0000C81
:1001D0004FF0000301EB1C6EBEF90250BEF9004067
:1001E0000EF5807EBEF90290BEF900800EF5807E8D
:1001F000BEF90270BEF900600EF5807EBEF902B055
:10020000BEF900A00EF5807ED044D944A8EB4A0A7E
:10021000A9EB4B0B4FEAA4044FEAA50504EBA60497
:1002200005EBA705A4EB6606A5EB670704EBA8049E
:1002300005EBA905A4EB6808A5EB690906EBAB067D
:10024000A7EBAA07A6EB6B0B07EB6A0A458020F821
:10025000044B478020F8046BA0F8029020F8048B30
:10026000A0F802A020F804BB03F1010393FAA3FC59
:10027000402BAFD1A0EB82014FF0100312090FF217
:10028000361000F1000006B403EB430C6144A2F504
:10029000803202EB8332B1F90250B1F90040A1EB98
:1002A0000301B0F902B0B0F900A000F10400A5EB21
:1002B000040E0EFB0BFC0AEB4B0E05FB0ACB04FBFA
:1002C0000ECAB1F90250B1F90040A1EB0301B0F937
:1002D0000290B0F9008000F10400A5EB040E0EFBC3
:1002E00009FC08EB490E05FB08C904FB0EC8B1F96F
:1002F0000250B1F90040A1EB0301B0F90270B0F96E
:10030000006000F10400A5EB040E0EFB07FC06EBF9
:10031000470E05FB06C704FB0EC6B1F90250B1F942
:10032000004001F10001D044D944A8EB4A0AA9EBEE
:100330004B0B4FEAA4044FEAA50504EB264405EB5A
:100340002745A4EBE636A5EBE73704EB284405EB9D
:100350002945A4EBE838A5EBE93906EB2B46A7EBDA
:100360002A47A6EBEB3B07EBEA3A4D800C80194499
:100370004F800E801944A1F80290A1F80080194422
:10038000A1F802A021F804BBB2F5803283DA03EBB6
:10039000430C6144A2F101025FEA024E18BFA0EBD8
:1003A0000C007FF476AF06BC4FEA830392087FF41B
:1003B0006AAFBDE8F08F0040000000400000004040
:1003C00000005DDD213BA3227E180000412D7EA5AB
:1003D000412D0000412D00C000405DDD82E75DDD64
:1003E000213B7EA5412D0040000000400000004060
:1003F0000000AA2A94126B39460649327C0CA811D7
:100400008E2349327C0CA3227E1821F77931AA2A47
:100410009412A8118E235DDD213BA3227E180000DB
:10042000412D95C6B13F461A2B1E58EE3735BEB446
:10043000C53EA8118E235DDD213B63A97138DF081D
:100440009A28B7CDC53E7EA5412D0000412D00C0A4
:10045000004063A92B1E21F77931BEB4C53EBEB45E
:100460007C0C58EE373561AC213B95C6BAF9BAE53C
:1004700071383BA737355DDD82E75DDD213B7EA529
:10048000412D21F766D756D53F3D3BA78E23A811B6
:10049000C9CAB7CDC53E61AC7E18AA2AC1C295C6ED
:1004A000B13FBEB47C0C00400000004000000040A2
:1004B00000001E3BB504693E9201C83C2403EB35A5
:1004C0006409C83C24036B3946066C30060E1E3B9B
:1004D000B504EB356409AA2A94126B3946064932F1
:1004E0007C0CAE240917AF37D607882E8D0F7E1EE1
:1004F0005D1BEB356409AA2A941224188C1F1E3444
:10050000F10AB3269015A8118E2349327C0CA32240
:100510007E18140B60276C30060E7E1E5D1B710466
:10052000FB2A882E8D0F461A2B1EC7FD5A2E9D2C96
:100530001211FE15E72021F77931AA2A9412A81189
:100540008E2387F05334B2281314480D202602EA74
:10055000E536B3269015DF089A289CE32B39AE24A4
:1005600009177104FB2A5DDD213BA3227E180000E0
:10057000412D4ED7C53C9320EF198FFB6C2F78D1BE
:10058000153E7E1E5D1B21F77931E2CB0F3F641CC7
:10059000C61CB8F2683395C6B13F461A2B1E58EEFA
:1005A000373597C1FB3F24188C1F02EAE536F0BCB3
:1005B000EC3FFE15E720BAE57138A6B8853FD513A4
:1005C0003D2282E1DB39BEB4C53EA8118E235DDD3C
:1005D000213B40B1AF3D790FDA244DD9423C2EAEDC
:1005E000423C480D202656D53F3D8EAB823A140B37
:1005F000602778D1153E63A97138DF089A28B7CDF6
:10060000C53EB1A71236A906CE2915CA4F3F78A616
:1006100068337104FB2A95C6B13FBCA57630390218
:10062000212C38C3EC3F7EA5412D0000412D00C098
:100630000040BCA5CE29C7FD5A2EF0BCEC3F78A6E1
:1006400020268FFB6C2F09BAB13FB1A73D2257F985
:1006500076304DB74F3F63A92B1E21F77931BEB4D9
:10066000C53E8EABEF19ECF474325EB2153E2EAE81
:100670009015B8F268332DB03F3D40B1121187F0AC
:1006800053342EAE423CBEB47C0C58EE373561ACD0
:10069000213BA6B8D6072BEC1236C8AADB39F0BC32
:1006A000240302EAE53663A9713897C16EFEDCE7E0
:1006B000B03734A8E53695C6BAF9BAE571383BA724
:1006C0003735E2CB0FF59CE32B3978A6683378D128
:1006D00073F082E1DB39EDA579314ED7EDEB6DDFBB
:1006E000823A99A56C2F5DDD82E75DDD213B7EA519
:1006F000412D9CE33AE352DBB63B99A5FB2A02EA83
:1007000019DF4DD9423CEDA59A2887F026DB4ED75C
:10071000C53C78A6202621F766D756D53F3D3BA796
:100720008E23C7FDDFD363D3AF3D34A8E720710428
:1007300094D078D1153E63A92B1E140B8CCD94CF89
:10074000723EC8AA5D1BA811C9CAB7CDC53E61AC2F
:100750007E18241850C8E2CB0F3F2EAE90157E1E97
:1007600025C615CA4F3F2DB09412AE244AC451C8B5
:10077000853F5EB28D0FAA2AC1C295C6B13FBEB4F5
:100780007C0C6C308EC1E2C4D43F4DB76409EB35AC
:10079000B1C038C3EC3F09BA46061E3B2CC097C116
:1007A000FB3FF0BC24034FF0000200B51346944613
:1007B0009646203922BFA0E80C50A0E80C50B1F1B9
:1007C0002001BFF4F7AF090728BFA0E80C5048BFCD
:1007D0000CC05DF804EB890028BF40F8042B08BF6B
:1007E000704748BF20F8022B11F0804F18BF00F867
:1007F000012B704770477047704710B500F008F83C
:10080000006810BD10B5044600F002F8046010BD89
:1008100000487047740D002000487047740D002098
:100820007546FFF7F9FFAE4605006946534620F0CE
:100830000700854618B020B5FFF7B4FCBDE820409E
:100840004FF000064FF000074FF000084FF0000B8C
:1008500021F00701AC46ACE8C009ACE8C009ACE83F
:10086000C009ACE8C0098D46704710B50446AFF327
:1008700000802046BDE81040FFF77FBC01491820EA
:10088000ABBEFEE72600020070470000014800F002
:1008900066B900001C08002070B504460068816835
:1008A000C943C90717D1816821F00101816000F0B7
:1008B000B5FD05460AE000BF00F0B0FD401B022870
:1008C00004D920688068C043C00706D020688068CB
:1008D000C043C007F0D0002070BDA06A40F01000F7
:1008E000A062E06A40F00100E062012070BD10B536
:1008F0000146406A826A12F0500F05D0006A026B0E
:10090000BDE8104008461047816A41F400718162D9
:1009100001688968C1F3424107290CD1017B51B9B3
:10092000816A21F480718162816AC90403D4816A79
:1009300041F00101816200F0F3F810BD10B5406A8A
:10094000816A41F040018162C16A41F00401C162E3
:1009500000F001F910BD10B5406A00F0FBF810BDC1
:10096000F8B500260446009600688168C943C907A7
:100970002DD0816841F00101816016481649006858
:10098000B0FBF1F000E0401E00900028FBD100F029
:1009900045FD054616E000BF00F040FD401B022863
:1009A00010D920688068C043C0070BD0A06A40F00F
:1009B0001000A062E06A40F00100E06284F8246068
:1009C0000120F8BD20688068C043C007E4D1002042
:1009D000F8BD00001800002040420F00FEE70000B4
:1009E000014800F0F1BA00004C08002030B590F842
:1009F00040500124AC40C56B6C6004686360436880
:100A0000102B036803D099600068C26030BD9A6003
:100A10000068C16030BD7047022000F0F1BB72B6C3
:100A2000FEE77047F8B50024009490F8242025468E
:100A3000012A12D0012280F824204A681F23072AA5
:100A40000DD20668776B521E02EB820293409F43E1
:100A50000B6893401F43776319E00220F8BD0668D6
:100A60000D2A0AD2376BD21F02EB820293409F43BA
:100A70000B6893401F43376309E0F76A0D3A02EBB6
:100A8000820293409F430B6893401F43F7620A68BA
:100A9000072306680A2A0AD3F7680A3A02EB4202D9
:100AA00093409F438B6893401F43F76008E037698A
:100AB00002EB420293409F438B6893401F43376190
:100AC0000A68102A01D0112A20D1124B02689A42DA
:100AD00017D193681B0219D4936843F40003936001
:100AE0000968102912D10C490C4A0968B1FBF2F1CE
:100AF00001EB8101490000E0491E00910029FBD172
:100B000004E0816A41F020018162012480F82450D0
:100B10002046F8BD002401401800002040420F008C
:100B2000094988420ED1094801214FF48072417071
:100B30008178491C49088170054800EB4121024831
:100B400000F0BCB9704700001C0800200000002025
:100B50001C000020704770470068C06C704770B57B
:100B60000446006806684568A90625D5B10723D55F
:100B7000A16AC90603D4A16A41F40071A162816827
:100B8000C1F34241072910D1217B71B9416821F09D
:100B900020014160A06A20F48070A062A06AC004B5
:100BA00003D4A06A40F00100A0622046FFF7B8FF1E
:100BB00021686FF01200086028062ED570072CD52A
:100BC000A06AC00603D4A06A40F40050A062206866
:100BD0008168C1F30231072909D04168490515D45C
:100BE0008168C1F34241072910D1217B71B9416865
:100BF00021F080014160A06A20F48050A062A06AC8
:100C0000C00503D4A06A40F00100A0622046FFF7AF
:100C100008FF21686FF00C00086068060CD5F0072B
:100C20000AD0A06A40F48030A062204600F094F818
:100C300021686FF00100086070BD00002DE9F041EF
:100C40004FF0000704003D467ED0A06A002628B978
:100C5000E66284F82460204600F080F82046FFF722
:100C60001BFEA16AC90600D420B1A06A40F01000A2
:100C7000A06269E0A16A21F4885141F00201A162F9
:100C80006268E169237B0A4347EA43010A43A1689A
:100C90004FF48077B94209D0012907D05FF00001F5
:100CA00094F814C0BCF1010F02D00AE03946F7E70E
:100CB000F3B1A36A43F02003A362E36A43F00103A4
:100CC000E3622368D3F804C02CF4694C4CEA010CAD
:100CD000C3F804C021688B68DFF870C003EA0C0316
:100CE00013438B60A168B9420BD0012909D00CE0F5
:100CF000DFF85CC0A3690CEB43330B4343F40061A2
:100D0000DFE7218A0D05A5F580152168CB6A23F45C
:100D100070032B43CB62216889680E4B19409142C6
:100D200008D1E662A16A21F0020141F00101A1624D
:100D3000BDE8F081A06A20F0020040F01000A0623F
:100D4000E06A40F00100E0620120F1E7FDF7E1FF19
:100D500000E0FFFFFE0E1FFF7047000070B586B079
:100D600000250646009501950295039500681E49E9
:100D7000884236D11D49886940F4007088618869CD
:100D800000F400700490886940F00400886188696C
:100D9000694600F0040004900220009003200190B6
:100DA000134800F039FA144C1248C4E900058020B9
:100DB000C4E90250400020618000C4E905058000BC
:100DC000E061204600F0AAF908B1FFF728FE34627E
:100DD000002211461220666200F016FD122000F07B
:100DE00005FD06B070BD0000002401400010024067
:100DF00000080140080002404C08002070B504467D
:100E000090F8240001280DD0012084F82400204609
:100E1000FFF7A6FD02004FF0000005D084F8240083
:100E2000104670BD022070BDA16A40F201239943B3
:100E300041F48071A1621F4D23681F49AB4218D154
:100E40000E6816F4702F14D0A66A46F48016A662B7
:100E50000E68760505D5A66A26F4005646F4805637
:100E6000A662A66AF6040AD5E66A26F00606E662D7
:100E700006E0A66A26F48016A6625E68E9E7E062EC
:100E800084F824006FF00200186020688368C3F3C0
:100E90004243072B05D1A84208D1096811F4702FED
:100EA00004D0816841F480118160B9E7816841F420
:100EB000A001F9E700280140042401402DE9F04792
:100EC000894604463B4900683B4F0E1D90468842C8
:100ED00001D0B84207D1306810F4702F03D001253B
:100EE0002846BDE8F08794F8240001280CD00120A2
:100EF00084F824002046FFF733FD05004FF0000082
:100F000004D084F82400EBE70220EAE7A16A40F667
:100F10000162914341F48071A1622168B94218D104
:100F2000326812F4702F14D0A16A41F48011A162CA
:100F30003168490505D5A16A21F4005141F4805179
:100F4000A162A16AC9040AD5E16A21F00601E16241
:100F500006E0A26A22F48012A2624968E9E7E06230
:100F600084F82400216A15488862216A1448C862FE
:100F7000216A1448086321686FF002000860206845
:100F8000816841F480718160216843464A464C3152
:100F9000206A00F0F1F820688168C1F34241072916
:100FA000816803D041F48011816099E741F4A00188
:100FB000FAE700000024014000280140EF08000883
:100FC000570900083D0900082DE9F05FC16B0C6866
:100FD00001680B68D0F840C0042202FA0CF2494DB7
:100FE000DFF824A1494E4A4FDFF828B1DFF828E1A5
:100FF00022422CD05A072AD50A68920603D40A68DE
:1010000022F004020A600168A94201D1042219E019
:10101000514501D1402215E0B14202D14FF4806226
:1010200010E0B94202D14FF480420BE0594502D1A1
:101030004FF4802206E0714502D14FF4800201E0B6
:101040004FF080622F4908394A60C16A3BE04FF097
:10105000020808FA0CF818EA040F4FF000094FF0E4
:10106000010235D05FEA837832D50B689B0605D440
:101070000B6823F00A030B6080F821200168A94265
:1010800001D1022219E0514501D1202215E0B142DF
:1010900002D14FF4007210E0B94202D14FF4005275
:1010A0000BE0594502D14FF4003206E0714502D100
:1010B0004FF4001201E04FF00072124908394A6003
:1010C00080F82090816A00291AD0BDE8F05F0847B7
:1010D000082505FA0CF5254212D01B0710D50B6820
:1010E00023F00E030B6090F84010C36B02FA01F17D
:1010F0005960826380F8212080F82090016BE2E73C
:10110000BDE8F09F080002401C0002403000024091
:1011100044000240580002406C00024030B528B341
:1011200008C8134914221944B1FBF2F18900C163C4
:1011300010498163022141771A6843F6F0718A43AE
:10114000D0E900142143D0E902452C43214304692E
:1011500021434469214384692143114319600021DB
:101160004163012242770177084630BD012030BD3E
:10117000F8FFFDBF0000024070B5044690F8200063
:10118000002501280CD0012084F8200094F821606B
:101190000020012E06D084F820000225284670BDCC
:1011A000022070BD022684F82160A06320680668D2
:1011B00026F0010606602046FFF718FCE06A0028CA
:1011C0002068016802D041F00E0106E021F0040120
:1011D00001602068016841F00A010160206801682F
:1011E00041F001010160D9E7022804D102490860F9
:1011F000024800F0B7BE7047140401402C090020DB
:10120000044910B50A68024202D00860FFF7ECFFFB
:1012100010BD0000140401402DE9F84FDFF8B8912B
:101220000024A9F1040B23460F2709F1040AABF1AE
:10123000040EC9E00125A5402A40AA427DD1674E8F
:10124000D1F804C0ACEB0608B44532D014DCBCF1D4
:10125000030F3AD009DCBCF1000F2AD0BCF1010F1A
:101260001CD0BCF1020F31D11DE0BCF1110F17D021
:10127000BCF1120F2AD119E0B8F5881F19D006DC8D
:10128000B8F5803F15D0B8F5801F1FD111E0B8F533
:10129000001F0ED0B8F5041F18D10AE0CB6815E086
:1012A000CB681B1D12E0CB6808330FE0CB680C3312
:1012B0000CE08B682BB1012B4FF0080303D0456184
:1012C00004E0042302E0056100E00023FF2A01D8C6
:1012D000064601E000F104064FEA840501D9A5F1B4
:1012E0002005D6F8008007FA05FC28EA0C0803FA66
:1012F00005F548EA0508C6F800804D68ED0062D59E
:10130000374DAE6946F00106AE61AD6924F00306C3
:1013100005F001050095334D06EB050CDCF808508F
:10132000A607360F07FA06F825EA0805DFF8B880A1
:10133000404503D14FF0000817E044E0DFF8AC80EF
:10134000404502D14FF001080FE0DFF8A48040458E
:1013500002D14FF0020808E0DFF89880404502D142
:101360004FF0030801E04FF0040808FA06F848EAD5
:101370000508CCF808804D68D9F80060ED024D46AC
:1013800001D5164300E096432E604D68DAF8006000
:10139000AD02554601D5164300E096432E604D68D8
:1013A000DBF80060AD035D4601D5164300E09643CF
:1013B0002E604D68DEF80060ED03754601D51643DA
:1013C00000E096432E60641C0D682A46E5407FF4D9
:1013D00031AFBDE8F88F0000080401400000111093
:1013E000001002400000014000080140000C0140D4
:1013F00000100140001401408068084000D0012026
:101400007047C26821EA02030A4043EA02410161CF
:1014100070470AB1016170470904FBE70148806821
:10142000704700000C00002070B5040025D094F82F
:101430003D00002520B984F83C50204600F050F9CA
:10144000242084F83D002068016821F0010101603A
:101450002068016841F4004101602068016821F4BE
:101460000041016000F00EFB4D4A6168914201D8D5
:101470004C4900E04C49884201D2012070BD4B49E3
:101480002368B0FBF1F15E6826F03F060E435E6014
:101490006368934206D94FF4967359434FF47A73B5
:1014A000B1FBF3F12368491C1E6A26F03F06314365
:1014B00019626168914210D84900401EB0FBF1F2F8
:1014C000521CC2F30B02042A01D2042022E0B0FB1A
:1014D000F1F0401CC0F30B001CE0A268F2B301EB7A
:1014E000C10303EB0116431EB3FBF6F35B1C43F48D
:1014F00080431B0549D092B301EBC10202EB0111FD
:10150000401EB0FBF1F0401CC0F30B0040F48040E3
:1015100040F400402168CA694CF6FF739A431043B7
:10152000C861D4E9071001432068026822F0C002B4
:1015300011430160D4E9030101432068826848F245
:10154000FF339A4311438160D4E9050108432168C0
:10155000CA6822F0FF021043C86001E00EE016E006
:101560002068016841F0010101602564202084F8B1
:101570003D00256384F83E50002070BD01EB41061C
:10158000431EB3FBF6F35B1CB3E70120C2E701EB9C
:101590004101401EB0FBF1F0401CC0F30B00B7E767
:1015A000A086010080841E0000093D0040420F001B
:1015B0002DE9FF4F83B09A46DDE911979346044623
:1015C000DDF84080FFF72AFF054694F83D0020280B
:1015D0007FD11923012240492046009500F01CFFCD
:1015E000002876D194F83C00012872D0012084F8BC
:1015F0003C0020680168C90703D1016841F001017E
:1016000001602068016821F400610160212084F8F4
:101610003D00402084F83E0000262664C4F8248063
:10162000A4F82A90608D20852C48E062CDE90075F1
:1016300053465A462046049900F06EFE70B930E0D9
:101640002A463946204600F08DFF58B1206C042808
:1016500004D12068016841F400710160012007B0E5
:10166000BDE8F08F606A216800780861606A401CFC
:101670006062218D491E89B22185628D521E62856C
:1016800022685369DB435B070BD469B100781061B2
:10169000606A401C6062208D401E2085608D401E67
:1016A0006085208D0028CBD12A463946204600F09F
:1016B00087FE0028CAD154F83D0B016841F400713F
:1016C0000160202004F81E09E67766770020C6E74F
:1016D000FFE70220C3E70000020010000000FFFF48
:1016E00010B586B00021009101910291039100682C
:1016F0000F4988421AD10F4CA06940F00800A06140
:10170000A069694600F008000490C02000901220F3
:101710000190032003900848FFF77EFDE06940F444
:101720000010E061E06900F40010049006B010BD04
:101730000054004000100240000C01400248816843
:1017400002781144816070470C000020074810B5F2
:10175000016841F010010160032000F075F80F20CE
:1017600000F006F800F024F8002010BD0020024030
:1017700070B50D4D04464FF47A712878B1FBF0F046
:101780000A490968B1FBF0F000F042FB48B9102C9F
:1017900007D200222146501E00F036F800206C606F
:1017A00070BD012070BD00000C000020180000205A
:1017B0000C4808B5816941F001018161816901F03E
:1017C00001010091C16941F08051C161C06900F01F
:1017D000805000900448416821F0E06141F00071C0
:1017E000416008BD0010024000000140002809DBF4
:1017F00000F01F02012191404009800000F1E0202B
:10180000C0F8001170470000F0B40E4B1B680C4686
:10181000C3F30223C3F10705042D00D90425191DC4
:10182000072901D2002300E0DB1E012606FA05F19C
:10183000491E214099409E40761E16403143F0BC1F
:1018400001F01EBA0CED00E0064900F0070208683E
:101850004FF6FF03184040EA0220034A1043086095
:10186000704700000CED00E00000FA052DE9F84398
:1018700005460078354CC00754D0E0690026C0000A
:1018800008D4E06940F08050E061E069012600F092
:10189000805000902E480168C90512D40168804626
:1018A00041F480710160FFF7B9FD074605E000BF14
:1018B000FFF7B4FDC01B642823D8D8F80000C0058A
:1018C000F6D5206A10F4407021D0A98801F4407147
:1018D00081421CD0206A1F49012220F440700A6016
:1018E00000220A602062C00711D0FFF797FD07466B
:1018F00041F2883808E000BFFFF790FDC11B414569
:1019000002D90320BDE8F883206A8007F4D5206A55
:10191000696820F44070084320621EB1E06920F03D
:101920008050E0612878800705D56068A96820F4B8
:101930004040084360602878C00605D56068E968C3
:1019400020F48000084360600020DBE700100240C4
:1019500000700040400442422DE9F0470F46050068
:1019600061D0434E306800F00700B84209D23068B9
:1019700020F0070038433060306800F00700B842BC
:1019800051D128683B4C810712D5400703D56068C8
:1019900040F4E06060602878000703D5606840F498
:1019A000605060606068A96820F0F00008436060E3
:1019B0002878C00728D06868012810D0216802283C
:1019C00010D0890700292EDA616821F00301014354
:1019D0006160FFF723FD804641F288390DE0216800
:1019E0008903EFE78901EDE7FFF718FDA0EB080198
:1019F000494502D90320BDE8F0876068696800F0B6
:101A00000C00B0EB810FEFD1306800F00700B84256
:101A10000BD9306820F0070038433060306800F0A0
:101A20000700B84201D00120E5E72878400705D536
:101A30006068E96820F4E060084360602878000787
:101A400006D56068296920F4605040EAC1006060F2
:101A500000F028F86168084AC1F30311515CC840DE
:101A60000649086006480068FFF782FE0020C2E7CA
:101A70000020024000100240D2340008180000206C
:101A8000100000200448054900684968044AC1F371
:101A90000221515CC840704718000020001002402D
:101AA000E23400080E4A51680E4801F00C03042B82
:101AB00011D0082B0FD10C48C1F38343C903C05C7C
:101AC0000AD55168084AC1F34041921E515C054A4B
:101AD0005043B0FBF1F070470449484370470000A1
:101AE0000010024000127A00C234000800093D00D4
:101AF0002DE9F84F040070D02078C04DC00749D0C0
:101B00006868C0F38100012807D06868C0F38100CD
:101B1000022809D16868C00306D52868800339D532
:101B200060680028E7D035E06068B0F5803F0BD0F2
:101B300010B1B0F5A02F11D0286820F480302860B3
:101B4000286820F4802002E0286840F48030286073
:101B5000606890B1FFF762FC06460AE0286840F42E
:101B600080202860F0E700BFFFF758FC801B642846
:101B700073D828688003F7D50CE0FFF74FFC0646C2
:101B800005E000BFFFF74AFC801B6428F0D82868F6
:101B90008003F7D420789A4E80074FF001094FF068
:101BA000000839D5686810F00C0F07D06868C0F3DA
:101BB0008100022809D16868C00306D4286880071C
:101BC00014D52069012808D110E02069B0B1C6F809
:101BD0000090FFF723FC074605E00AE1FFF71EFC33
:101BE000C01B0228C4D828688007F7D52868616917
:101BF00020F0F80040EAC10028600DE0C6F800803F
:101C0000FFF70CFC074604E0FFF708FCC01B0228A6
:101C100023D828688007F7D4207800072CD5794886
:101C2000A169D9B1C0F80090FFF7F8FB074604E0BE
:101C3000FFF7F4FBC01B02280FD8686A8007F7D5AE
:101C400071484FF4FA510068B0FBF1F0009000BF0A
:101C50000098411E0091FAD20EE080E0C0F80080AA
:101C6000FFF7DCFB074604E0FFF7D8FBC01B0228A8
:101C700075D8686A8007F7D42078400760D5E8698E
:101C80000027C00008D4E86940F08050E861E869A6
:101C9000012700F0805000905C480168C90513D40A
:101CA0000168834641F480710160FFF7B7FB82460B
:101CB00006E000BFFFF7B2FBA0EB0A0064284ED895
:101CC000DBF80000C005F5D5E06801280AD008B1AE
:101CD000052813D0286A20F001002862286A20F025
:101CE000040002E0286A40F001002862E06841F246
:101CF000883B98B1FFF792FB82460BE0286A40F0E0
:101D000004002862EEE700BFFFF788FBA0EB0A01A2
:101D100059455AD8286A8007F6D50CE0FFF77EFBB4
:101D2000824605E0FFF77AFBA0EB0A0159454CD843
:101D3000286A8007F6D41FB1E86920F08050E86176
:101D4000E06988B36968C1F38101022944D002289F
:101D5000C6F8608004D0FFF761FB044638E034E049
:101D6000FFF75CFB074604E0FFF758FBC01B0228A7
:101D70002BD828688001F7D4206AB0F5803F05D1C0
:101D80006868A16820F4003008436860D4E908015D
:101D90000843696821F4741108436860C6F86090CC
:101DA000FFF73CFB044606E025E000BFFFF736FBEB
:101DB000001B022809D828688001F7D51BE000BF66
:101DC000FFF72CFB001B022802D90320BDE8F88F87
:101DD00028688001F4D40EE00128F7D06868226AF0
:101DE00000F48031914204D1616A00F4701088429D
:101DF00001D00120EAE70020E8E7000000100240DF
:101E0000000042428004424218000020007000405E
:101E100010B5401EB0F1807F01D3012010BD4FF0FE
:101E2000E02460610F21601700F02AFF0020A0610C
:101E300007202061002010BD7047704770B590F8F2
:101E40003C20012A26D0012480F83C40022280F860
:101E50003D2003685A689D6822F070060A68324384
:101E60005A600D4B02689A4208D0B2F1804F05D0FB
:101E70000A4B9A4202D00A4B9A4204D1496825F093
:101E800080031943916080F83D40002180F83C10A8
:101E9000084670BD022070BD002C014000040040C7
:101EA0000008004010B5040003D094F83D0010B1C4
:101EB00007E0012010BD002084F83C00204600F01F
:101EC0001FF8022084F83D00211D206800F020FE4C
:101ED000012084F8460084F83E0084F83F0084F82E
:101EE000400084F8410084F8420084F8430084F8FC
:101EF000440084F8450084F83D00002010BD000037
:101F000008B5154A0168154891420ED1C16941F0E2
:101F10000201C161C069002200F002000090114678
:101F20001D20FFF771FC1D2010E00D4A914211D1D8
:101F3000C16941F00401C161C069002200F00400E0
:101F4000009011461E20FFF75FFC1E20BDE80840F0
:101F5000FFF74CBC08BD0000000400400010024028
:101F60000008004090F83D10012901D00120704781
:101F7000022180F83D100168CA6842F00102CA607F
:101F800000680B49884208D0B0F1804F05D009495C
:101F9000884202D00849884204D1816801F00701D3
:101FA000062903D0016841F001010160002070475B
:101FB000002C014000040040000800400168CA688D
:101FC00022F00102CA6001680A6A41F211131A4242
:101FD00007D10A6A9B101A4203D10A6822F0010253
:101FE0000A60012180F83D100020704770B504465A
:101FF00090F83C000025012817D0012684F83C60A9
:10200000022084F83D002068826822F0770222F4E2
:102010007F4282600868502838D00DDC20284FD0DD
:1020200005DC90B3102811D14AE0022070BD3028A1
:1020300046D040280AD13BE060282FD070280DD030
:10204000B0F5805F03D0B0F5005F12D0012584F8B1
:102050003D60002084F83C00284670BDCB68D1E983
:102060000121206800F090FD2068816841F077012F
:1020700009E0CB68D1E90121206800F085FD2068E6
:10208000816841F480418160E1E719E0CA684968EC
:10209000206800F0D1FD5021206806E0CA68496838
:1020A000206800F0DAFD6021206800F077FDCEE7BF
:1020B000CA684968206800F0BFFD40212068F4E745
:1020C000226801461046F0E770472DE9F0410446CA
:1020D0000068C66805694FF00007A90713D5B10766
:1020E00011D5F91E016101202077206880698007E1
:1020F000204602D0FFF7E8FF04E000F07EF820461B
:1021000000F07CF82777680716D5700714D521688A
:102110006FF004000861022020772068806910F4C5
:10212000407F204602D0FFF7CFFF04E000F065F8C3
:10213000204600F063F82777280715D5300713D518
:1021400021686FF008000861042020772068C069CA
:102150008007204602D0FFF7B7FF04E000F04DF8FB
:10216000204600F04BF82777E80616D5F00614D580
:1021700021686FF010000861082020772068C0698E
:1021800010F4407F204602D0FFF79EFF04E000F0ED
:1021900034F8204600F032F82777E80708D0F00737
:1021A00006D021686FF001000861204600F028F891
:1021B000280608D5300606D521686FF08000086132
:1021C0002046FFF739FE680608D5700606D5216857
:1021D0006FF040000861204600F085F8A8060AD597
:1021E000B00608D521686FF0200008612046BDE8E0
:1021F000F041FFF722BEBDE8F08170477047000054
:102200001C4910B5884234D10846FFF7D7FE022199
:102210001948FFF7F1F801282BD141031748FFF7C0
:10222000F0F8174B002117481C78012274B119707F
:1022300002734FF46021C161FEF700FD1248FFF701
:10224000BDFEBDE810400F48FEF7D8BD1A700173FF
:102250004FF40021C1610B48FEF7F0FC0A48FFF77C
:1022600081FEBDE810404FF4807208490548FEF732
:1022700025BE10BD2C090020000C014000100140BB
:10228000000000201C080020E40800201C020020A0
:1022900070B5044690F83C00012812D0012584F85E
:1022A0003C50022084F83D00204600F07FFC0100F5
:1022B0004FF0000007D084F83D5084F83C00012026
:1022C00070BD022070BD2168CA6822F04002CA6059
:1022D0002168CA6822F48042CA6084F83D5084F8BC
:1022E0003C00002070BD7047FEE701684A69D24398
:1022F00052050FD46FF480624A61002140F8301F0C
:10230000202242738173026942F004020261017368
:1023100001207047002070472DE9F843044600680B
:102320000D46DDE9089701689846164641F480712C
:1023300001604B4600224FF001112046009700F04B
:102340006BF848B120680068C00502D54FF40070F2
:1023500020640320BDE8F883216805F0FE000861D1
:102360003B464A461549204600F09EF888B9206849
:102370004169806900903A464946204600F0F2F8EB
:1023800048B1206C042804D12068016841F4007130
:1023900001600120DEE7F5B2B8F1010F09D0216834
:1023A000300A08613A464946204600F0DBF800282A
:1023B000E7D1206805610020CCE7000002000100A1
:1023C00070B516460D4604461EE02046FFF78DFF09
:1023D00008B1012070BD681C16D0FFF71FF8801BE4
:1023E000A84200D885B920684069C04340070BD592
:1023F000002044F8300F20216173A073216941F05F
:10240000200121612073E4E720684069C043400750
:10241000DBD4002070BD00002DE9F0479846174638
:102420000D460446C1F30746DDF820902AE000BFC0
:10243000B8F1FF3F26D0FEF7F1FFA0EB09014145BF
:1024400002D8B8F1000F1DD12068012E16D0806986
:1024500025EA00000004000C12D00020B84211D17F
:10246000002044F8300F20216173A073216941F0EE
:102470002001216120730120BDE8F0874069E7E772
:102480000120EBE72068012E0AD0806925EA0000D0
:102490000004000C06D00020B842C9D00020EBE7B1
:1024A0004069F3E70120F7E72DE9F0479846164623
:1024B0000D4604464FF000094FF0200AC1F30747CC
:1024C00023E020684069C043400515D420680168B6
:1024D00041F40071016021686FF480604861C4F8C4
:1024E000309084F83DA084F83E90216C41F00401C6
:1024F000216484F83C9021E0701C06D0FEF78EFF2A
:10250000A0EB0800B04203D816B1012F1FD021E084
:102510002068012F15D0806925EA00000004000C16
:1025200018D000BF44F8309F84F80DA084F80E90B6
:10253000216941F02001216184F80C900120BDE85F
:10254000F087406925EA00000004000CEAD1206809
:10255000406901E02068806925EA00000004000C61
:10256000AFD1ECE770B516460D4604461EE0204696
:10257000FFF7BBFE08B1012070BD681C16D0FEF746
:102580004DFF801BA84200D885B920684069C04330
:1025900000060BD5002044F8300F20216173A07392
:1025A000216941F0200121612073E4E7206840693E
:1025B000C0430006DBD4002070BD00003EB50024FF
:1025C00010480094019402940D4984600160012533
:1025D0000573047505614FF460214460C161FEF725
:1025E0002DFB08B1FEF71BFA0095CDE901546946B1
:1025F0000448FEF717FA002801D0FEF710FA3EBD96
:10260000002401401C080020094808B5416941F038
:10261000010141614069002200F001000090114673
:102620000B20FFF7F1F8BDE808400B20FFF7DEB8FC
:102630000010024070B586B0002424480094019434
:1026400002940394816941F010018161816901F074
:1026500010010491816941F020018161816901F0DB
:1026600020010491816941F004018161816901F0D7
:1026700004010491816941F0080181618069144E6F
:1026800000F008004FF4005504900022294630461F
:10269000FEF7BFFE01200095CDE901040224694642
:1026A00030460394FEF7B8FD0A486946CDE900407C
:1026B00009480294FEF7B0FD002211460720FFF7FB
:1026C000A3F80720FFF792F806B070BD0010024093
:1026D0000010014000001110000C01400D4810B521
:1026E0000B4901600C49416000214FF48042816038
:1026F000C0E9031241618161C1610162FEF794FE8C
:10270000002803D0BDE81040FEF789B910BD0000D5
:102710000054004090080020A086010010B58CB045
:102720000024059406940794142168460894FEF743
:102730003AF81948099417490A94C0E900144FF46B
:10274000CC61C0E9024104618461FFF7ABFB08B1D1
:10275000FEF765F94FF48050059005A90E48FFF784
:1027600045FC08B1FEF75BF9009469460A480194FC
:10277000FFF78EFD08B1FEF752F92020CDE90904DC
:1027800009A90548FFF75AFB002801D0FEF747F9D1
:102790000CB010BD00040040E408002010B586B065
:1027A000002417480094019402940394049413495C
:1027B000059401600721C0E9011442F20F71C0E9DC
:1027C000031480218161FFF76DFB08B1FEF727F943
:1027D0004FF48050009069460948FFF707FC08B1A4
:1027E000FEF71DF9049404A905480594FFF726FB9C
:1027F000002801D0FEF713F906B010BD0008004014
:102800002C090020FEE7FEE710B50021074C0A4620
:10281000002004EBC1131A54401CC0B28028FAD324
:10282000491CC9B20829F3D310BD00007409002067
:102830002DE9F04F1E464FF0000904460D4617469D
:10284000C846B1420ED1BC4208DD2746144605E019
:102850002946204600F062F8641C24B2BC42F7DD31
:10286000BDE8F08FBC420DD1B54208DD1D460E46D5
:1028700005E02946204600F051F86D1C2DB2B54206
:10288000F7DDEDE703DD274614461D460E46B5424B
:1028900005DD684205B2704206B24FF00109701BB7
:1028A000391B884207DD20462C4605463846374608
:1028B00006464FF00108701B4200391B0FFA82FBDD
:1028C000421A52000FFA82FAC1EB400019E060424E
:1028D00001B203E0684201B203E02146284601E06C
:1028E0002946204600F01AF8BC42B9DA641C24B22A
:1028F000002E02DA06EB0B0003E06D1C2DB206EB96
:102900000A0006B2B9F1000F03D0B8F1000FE1D010
:10291000DDE7B8F1000FE3D0DFE7000010B57F2856
:1029200013D8002911DB3F290FDCCA1701EB5272C3
:10293000D410064B22F0070203EBC41318448A1A82
:102940000378012191400B43037010BD74090020EE
:1029500010B5AE2000F06EF8D52000F06BF88020A6
:1029600000F068F8A82000F065F83F2000F062F859
:10297000D32000F05FF8002000F05CF8402000F069
:1029800059F8A12000F056F8C82000F053F8DA20DA
:1029900000F050F8122000F04DF8812000F04AF8C5
:1029A000CF2000F047F8D92000F044F8F12000F0E3
:1029B00041F8DB2000F03EF8302000F03BF8A42086
:1029C00000F038F8A62000F035F88D2000F032F83D
:1029D000142000F02FF8AF2000F02CF8FFF714FFC0
:1029E000BDE8104000F012B810B5891CCCB240F020
:1029F000B00000F01FF8102040EA141000F01AF8A0
:102A000004F00F00BDE8104000F014B870B5084D98
:102A1000002400212046FFF7E7FF05EBC4108021CA
:102A200000F01AF8641CE4B2082CF2D370BD000068
:102A30007409002001B584B001214FF0FF3204A8D1
:102A40008DE807000B46002278210248FEF7B0FD12
:102A500005B000BD900800200EB54FF0FF328DE8A4
:102A600007000123402278210148FEF7A1FD0EBD99
:102A70009008002070477047FEF760BE30B593B0F5
:102A800028216846FDF78FFE14210AA8FDF78BFE6A
:102A9000002501200F9510951195010412958DE8E0
:102AA000230004904FF4E010CDE9081002240794AD
:102AB0006846FFF71DF808B172B6FEE70AA90F20B5
:102AC00081E831004FF48060CDE90D0502210AA8AC
:102AD000FEF742FF08B172B6FEE74FF400401190D6
:102AE0000F940FA8FEF7C2FE002801D072B6FEE7D1
:102AF00013B030BD704700000148FFF7E6BA000090
:102B0000E40800200148FFF7E0BA00002C0900208B
:102B1000F0B50268194B1A4C1A4D4FF08047984295
:102B200005D0B84203D0A04201D0A84203D122F080
:102B300070064A683243984205D0B84203D0A0429A
:102B400001D0A84203D122F44074CA6822434C69E0
:102B500022F08002224302608A68C2620A688262AE
:102B6000984201D109690163012141610169C907E5
:102B700003D0016921F001010161F0BD002C014089
:102B8000000400400008004010B5846842EA0322B7
:102B900024F47F440A432243826010BD826822F0FD
:102BA00070020A4342F007018160704770B5036804
:102BB00000249A6822F070054A682A4322F007052B
:102BC0000A682A439A604A6812F00F0F31D1121135
:102BD000082A2ED2DFE802F02E2E2E2E0B212704FB
:102BE0000B69D1E902210068FFF7CEFF22E00A68F5
:102BF000052A10D00268136A156A25F001051562CE
:102C000002689569096925F0F00545EA01119161AD
:102C1000006803620EE0012070BD0A6989680068DF
:102C200000F00AF806E00A698968006800F015F803
:102C300000E00124204670BD10B5036A046A24F048
:102C400001040462846924F0F00444EA021423F0CD
:102C50000A020A438461026210BD10B5036A046A65
:102C600024F010040462846923F0A00324F4704467
:102C700044EA023243EA01118261016210BDFEE7BB
:102C80000907090E002804DB00F1E02080F8001499
:102C9000704700F00F0000F1E02080F8141D70472D
:102CA000C0B0FEF753FDFFF7E9FEFFF7C3FCFFF7E7
:102CB000ABFCFFF713FDFFF771FDFFF77FFCFFF79C
:102CC0002DFDFFF745FEFFF79FFD4848FDF7B6FFD6
:102CD0004648FEF793F8464E464C4FF000084FF03A
:102CE00001096D462078002860D0012802D0607864
:102CF0000128F7D184F80180A0783F49401C4008A2
:102D0000E07001EB40214FF480723948FDF75CFA26
:102D100048460227C4F8049056F8200001B2001477
:102D2000494300FB001000F0C2F800F06BF800F01F
:102D30008FF807EBE001606845F82010401C6060E8
:102D40004028E9D3316808B20914404301FB01006F
:102D500000F0ADF800F056F800F07AF8001200909C
:102D600040464F46C4F8048055F820104000C1F199
:102D70003F010BB202B210463F21FFF759FD6068D8
:102D800055F8201007EB4000C1F13F010BB202B231
:102D900010463F21FFF74CFD6068401C60604028F2
:102DA000E2D3FFF733FEFFF72FFD9BE760687F2834
:102DB00005D9C4F80480FFF729FEFFF725FD0B486D
:102DC000FDF7CAFEA06000F09BFA0C4900F0BAF9CA
:102DD0000B4900F0A9FA00F077FA01B2A08800B21E
:102DE000FFF79CFD6068401C60607BE71C080020CA
:102DF0001C040020000000201C00002000F07F4583
:102E000000007C422DE9F04106460F4600F0B4F880
:102E1000041E0D4618BF0120284320F00040C0F1D9
:102E20007F6000F1E040C00F0ED0301C18BF0120C1
:102E3000384320F00040C0F17F6000F1E040C00F57
:102E400004BF0120FDF7DEFC20462946BDE8F081E5
:102E50004FEA41034FEA5353A3F58063D3F11E03B6
:102E6000C8BFD3F1210C0CDD4FF0004242EAC12271
:102E700042EA505232FA03FC8CEAE17CACEBE1709E
:102E80007047102BC4BF0020704703F5787CBCF15D
:102E9000FF3F04D06FF0004282EA2100704770B516
:102EA00000F01CF84992248000207047F2E710F0EF
:102EB000004248BF4042B0FA80F310FA03F10AD052
:102EC000C3F11D0303F580634FEA415002EB035247
:102ED00002EBD12170474FF0000070470EF1020E57
:102EE0002EF0030E5EF8046B364205D4012A43EB44
:102EF000030515F5001F12D8012841EB010C1CF544
:102F0000001F0CD80ED14FEAD17C15F5001F0CEB39
:102F10004C0C0CF1020C08BF4CEBD37C04E04FF0DE
:102F2000080C01E04FEAD37C0CEB4C0526FA05F6C1
:102F300006F00706B6F1040C06D20EEB860CBDE8CF
:102F400070404CF0010C6047DFE80CF0090B020206
:102F50004FF000414FF00000A1F5002170BD19466F
:102F60001046012851EB010418BFD4F5001484BFAA
:102F7000002001F0004170BD2DE9F04101F5801CF9
:102F8000BCF5001FC0F2C3804FEA115C21EA0C516E
:102F90000CF1FD0C41F480115FEA5C0C0CF5C07C77
:102FA00001D3400049413DA4890241EA9051870282
:102FB0008E0E0A0CA45D04FB04F602FB06F6C6F1B5
:102FC0004046A4FB0662F60D46EA422606FB06F4DE
:102FD000A4FB01235242C3F1404338BF5B1EA6FB52
:102FE00002420024E6FB0324D20B42EA4446A6FB3D
:102FF0000623A1FB02E2A3FB07E4A4184FF00002A2
:1030000052F10002E3FB01426442C2F1404E38BF7C
:10301000AEF1010EA6FB04234FF00002E6FB0E32D8
:10302000A2FB03464FF00004B61954F10004E2FB82
:103030000264A1FB06E6A4FB07E816EB08064FF0C6
:10304000000858F10008E4FB01687642C8F14058D6
:1030500038BFA8F10108A2FB06E4A3FB08E52D197F
:103060004FF0000454F10004E2FB0854A1FB05E614
:10307000A7FB04E818EB06084FF0000656F100061F
:10308000E1FB048618F1200556F10006A809A8F115
:103090001B08B10908F03F08B8F10A0F40EA866042
:1030A0001CD901EB0C51BDE8F08100BFFCF5EEE846
:1030B000E2DDD8D3CFCBC7C3C0BDB9B6B4B1AEACD7
:1030C000A9A7A5A3A19F9D9B9A9896959392908F4F
:1030D0008D8C8B898887868584838281A0FB00689C
:1030E00000FB01F208EB4208B8EB872807D534183B
:1030F00058EB0104D5D5401C51F10001D1E7341A39
:1031000078EB0104CDD4401E71F10001C9E75FEAFC
:103110004C0C5FEA9C5C0DD105D34FF0000001F030
:103120000041BDE8F081BDE8F04170B5FFF7D6FE83
:103130006DDBFFBEBDE8F0414FF000000049704775
:103140000000F87F4FF47F0C1CEAD0121EBF1CEA6F
:10315000D11392EA0C0F93EA0C0F00F0858090EAED
:10316000010F48BF42F4807240F4000C41F40000AB
:103170002CF07F4120F07F4000B58142A2EB03029A
:103180000FF2081CACEB504EC0F100009EF800E0BE
:103190004FEA4E0E00FB0EFC38BF49004FEA2C1CD4
:1031A00002F5FA020CFB0EF34FEACE1E4FEA112C89
:1031B0004FEAC1210EEB635E42EB22420EFB0CFC98
:1031C0004FEA1C5300FB03114FEA112C4FEA013167
:1031D0000EFB0CFC4FEADC4C00FB0C11C14228BF7B
:1031E00009184CEB03335DF804EB10EB410143EBA2
:1031F000C250B2F57C0F38BF704729D512F0F00FDE
:103200001CBF00F1C04000F0004070470081828385
:103210008485868788898B8C8D8E8F9192939596E5
:1032200097999A9C9D9FA0A2A3A5A7A8AAACAEB06F
:10323000B2B3B5B7B9BCBEC0C2C5C7C9CCCED1D474
:10324000D7D9DCDFE2E6E9ECF0F3F7FAFE000000A4
:103250004FEA400C0CF1807CBCF17E4F28BF7047D8
:10326000B0F1C04000F027B990EA010F0CEAD11389
:1032700048BF42F48072624538BF634507D213F4F9
:103280007F0F16D080EA010000F00040704710B5B3
:1032900000F0CBF8097EFC3E00F005B880EA0100A2
:1032A00000F00040704780EA010000F0004000F0AC
:1032B00002B912F47F0F04BF0248704780EA010090
:1032C00000F0F9B80000C07F41000B0ED3F19E0260
:1032D00008D950F400034FEA032323FA02F048BF51
:1032E0004042704710B500F0A0F800BF499224801A
:1032F000002070476FF0004282EA20007047000013
:10330000B0FA80F310FA03F2C3F19D030AD0D90595
:1033100001EB1220530638BF704700F1010008BFCF
:1033200020F00100704700004FF47F0C1CEAD0121F
:103330001EBF1CEAD11392EA0C0F93EA0C0F00F0A7
:10334000478090EA010F48BF42F480724FF0004C72
:103350004CEA00204CEA012102EB0302A0FB01131E
:10336000A2F50002002918BF43F001035B0028BF4B
:103370004FEA330342EB22425FEA132C4CEBC2507C
:103380002EBFBCEB436FB2F57C0F70474FEA036C66
:10339000BCF1004F08BF20F00100B2F57C0F38BF30
:1033A00070470BD582F0FF0212F5803FC8BF70470F
:1033B00000F1C040D8BF00F00040704700F5000C9D
:1033C0005FEA4C0C48BF7047B0F1C04000F073B8E2
:1033D00090EA010F0CEAD11348BF42F480726245B3
:1033E00038BF634504D280EA010000F00040704716
:1033F00010B500F01AF800BF8900013E00F007B8D0
:1034000000F009B85FEA410C5FEA1C6C08D080EA62
:10341000010000F050B85FEA400C5FEA1C6CF6D186
:103420004FF00040A0F5800070470EF1020E2EF024
:10343000030E5EF8044B244204D44FEA4102B2F179
:103440007F4F11D84FEA4003B3F17F4F0CD80ED114
:103450004FEAD07CB2F17F4F0CEB4C0C0CF1020C1C
:1034600008BF4CEBD17C04E04FF0080C01E04FEAC0
:10347000D17C0CEB4C0324FA03F404F00704B4F100
:10348000040C06D20EEB840CBDE810404CF0010C8D
:103490006047DFE80CF0070802024FF00040A0F59B
:1034A000800010BD0846420018BFD2F1807288BF6C
:1034B00000F0004010BDFF2141EAD050C005704728
:1034C000010202030405060708090A0B0C0D0E0F82
:1034D00010100000000000000000010203040607B5
:1034E0000809000000000102030400000C35000878
:1034F000000000201C0000002801000828350008FA
:103500001C000020BC130000440100080000000063
:10351000000000000000000001000000100000009A
:083520000000000000127A0017
:04000005080000ED02
:00000001FF
